:1000000009C021C020C0BCC11EC01DC01CC01BC077
:100010001AC019C011241FBECFE9CDBF10E0A0E661
:10002000B0E0E8EFF4E002C005900D92A638B10709
:10003000D9F710E0A6E8B0E001C01D92AC38B107D6
:10004000E1F754D257C2DCCFDF92EF92FF920F93C9
:100050001F93182FF62EE42ED22E18BA80E062E0FD
:1000600041E0212F03D280E062E041E02F2DFED15C
:1000700080E062E041E0212FF9D180E062E041E0E0
:100080002E2DF4D180E062E041E0212FEFD180E01D
:1000900062E041E02D2DEAD180E062E041E0212FD5
:1000A000E5D180E062E041E0202FE0D182E088BB32
:1000B0001F910F91FF90EF90DF9008950F931F9382
:1000C00087E087BB89E060E070E040E050E020E03E
:1000D00030E000E010E0B8DF8AE060E070E040E08F
:1000E00050E020E030E0B0DF8BE067E070E047E018
:1000F00050E027E030E007E010E0A6DF8CE061E0B0
:1001000070E041E050E021E030E001E010E09CDFF1
:100110008FE060E070E040E050E020E030E000E0A0
:1001200010E092DF1F910F910895AF92BF92CF928E
:10013000DF92EF92FF920F931F93DF93CF930F9273
:10014000CDB7DEB7809160008823B9F510926200C8
:1001500010926100109284001092830033E6C32E47
:1001600030E0D32E21E0E22EF12CF6011182108234
:1001700000E010E083E043D180FD0EC09701002E27
:1001800002C0220F331F0A94E2F7F60180819181A9
:10019000822B932B918380830F5F1F4F00311105BA
:1001A00049F722E030E0C20ED31E33E8C31630E038
:1001B000D306D9F68AEF8093600080916000815069
:1001C0008093600093E6E92E90E0F92E670190E0BD
:1001D0009F5FF6014081518100891189892F652F28
:1001E00070E0212F30E099832FDF22E030E0C20E53
:1001F000D31E9981983061F788EC90E0E6D0809129
:100200006300909164008093830090938400009138
:1002100081001091820010936200009361009C01A4
:100220005901A0916500B091660060E070E081E046
:10023000C82ED12CF7011182108240E050E0411508
:10024000510511F4EFE007C0E42FE1504F305105A4
:1002500011F430E002C0342F3F5FCD01042E02C004
:10026000969587950A94E2F7282F2170C801042EED
:1002700002C0969587950A94E2F78170280FC8010D
:100280000E2E02C0969587950A94E2F78170280F8A
:10029000C801032E02C0969587950A94E2F78170F3
:1002A000280FC5010E2E02C0969587950A94E2F795
:1002B0008170280FC501032E02C0969587950A9478
:1002C000E2F78170280FCD0102C096958795EA95D7
:1002D000E2F78170280FCD0102C0969587953A9577
:1002E000E2F78170280FC501042E02C0969587950C
:1002F0000A94E2F780FF02C0223011F0233081F42B
:100300009601042E02C0220F331F0A94E2F7F70170
:1003100080819181822B932B918380836F5F7F4FAC
:100320004F5F5F4F4031510509F089CFF7012481BC
:10033000358182E090E0E80EF91E85015D0193E8C9
:10034000E91690E0F90611F0D90174CF60938600A8
:10035000709387006530710538F4809160008630B5
:1003600018F085E0809360000F90CF91DF911F918E
:100370000F91FF90EF90DF90CF90BF90AF900895D6
:100380001F920F920FB60F9211248F939F93AF93EA
:10039000BF938091880090918900A0918A00B091CC
:1003A0008B000196A11DB11D809388009093890058
:1003B000A0938A00B0938B00BF91AF919F918F91D2
:1003C0000F900FBE0F901F90189520E639E004C0E3
:1003D000F9013197F1F701970097D1F7089583B7A5
:1003E000816083BF8FB583608FBD89B7826089BF0D
:1003F00012BE789417B886B1876886B9089597B108
:1004000083709074892B87B9369A3699FECF24B1C0
:1004100045B1942F80E030E0282B392BC901089595
:10042000382F863010F5823040F4882319F48FB5C8
:100430008F7702C08FB58F7D8FBD662361F428B39F
:1004400081E090E002C0880F991F3A95E2F780950D
:10045000822388BB089528B381E090E002C0880F12
:10046000991F3A95E2F7282B28BB0895BF92CF92A7
:10047000DF92EF92FF920F931F93CF93DF93E82EBB
:10048000F62EB42EC7E0D0E0022F10E087E0C82E91
:10049000D12CBB2059F4B6016C1B7D0BC80102C0E6
:1004A000959587956A95E2F7BC0107C0B8010C2EB7
:1004B00002C0759567950A94E2F761708E2DB0DFE2
:1004C0008F2D61E0ADDF00008F2D60E0A9DF219767
:1004D0009FEFCF3FD907E9F6DF91CF911F910F91A1
:1004E000FF90EF90DF90CF90BF90089578DFE6DD2A
:0804F0001CDEFECFF894FFCFE3
:1004F80028000000000000000300030000CC0324D3
:100508003428162C24C0330000C000C000000000AE
:06051800000000000000DD
:00000001FF
